:020000040800F2
:10000000108A022055620108913B0108933B0108C8
:10001000953B0108973B0108993B0108000000004F
:10002000000000000000000000000000911F010817
:100030009B3B010800000000391F0108C3E70008CE
:1000400085620108896201088D62010891620108D8
:1000500095620108996201089D620108A162010888
:10006000A5620108A9620108AD620108653C0108AA
:10007000413C0108B1620108453C0108B562010834
:10008000493C0108513C0108B9620108BD62010800
:10009000C1620108C5620108C9620108A33B0108E9
:1000A000CD6201089D3B0108D1620108D5620108BB
:1000B000353C0108D9620108DD620108593C01089C
:1000C0005F3C0108E1620108E5620108E96201089C
:1000D000ED620108713C0108773C0108B53C01085C
:1000E000ED3B0108F1620108F5620108F9620108BF
:1000F000FD62010801630108056301086D3C010808
:1001000000000000096301080D6301081163010884
:1001100000000000000000003B3C01084B04010807
:1001200015630108196301081D63010821630108B3
:1001300025630108296301082D6301083163010863
:1001400035630108396301083D6301084163010813
:1001500045630108496301084D63010851630108C3
:100160005563010859630108000000000000000009
:10017000000000000000000000000000000000007F
:100180005D630108616301080000000000000000D9
:1001900065630108696301080000000000000000B9
:1001A000000000000000000000000000000000004F
:1001B0006D63010800000000000000007163010889
:1001C00075630108485454502F312E31203230309D
:1001D000204F4B0D0A436F6E74656E742D747970E9
:1001E000653A20746578742F68746D6C0D0A0D0A79
:1001F0003C68746D6C3E3C686561643E3C74697437
:100200006C653E4E65747363616C652037323C2FBC
:100210007469746C653E3C7374796C653E206469E6
:10022000762E6D61696E207B666F6E742D66616DD2
:10023000696C793A20417269616C3B7061646469F0
:100240006E673A20302E3031656D20333070783B48
:10025000626F782D736861646F773A20327078200E
:1002600032707820317078203170782023643264C5
:100270003264323B6261636B67726F756E642D63CB
:100280006F6C6F723A20236631663166313B7D3C7C
:100290002F7374796C653E3C2F686561643E3C62E7
:1002A0006F64793E3C64697620636C6173733D27AB
:1002B0006D61696E273E3C703E3C646976207374C4
:1002C000796C653D226865696768743A37323B62CC
:1002D0006F726465723A31707820736F6C69642054
:1002E000233030303B6261636B67726F756E642DD3
:1002F000636F6C6F723A20233030303030303B22E5
:100300003E3C696D67207372633D27646174613A96
:10031000696D6167652F706E673B62617365363426
:100320002C6956424F5277304B47676F41414141EC
:100330004E535568455567414141324D4141414217
:100340004843414D41414143394F6D2B4741414164
:1003500041576C424D564555414141442F2F2F2F57
:10036000364143736C4A5357335A67466D742F387E
:1003700032414143332F2F38414147625341693362
:100380005230644C78385042675947442F74326277
:10039000636B54646D414141336B647A2F2F376531
:1003A000576C3559425A72662F334A482F2F397A83
:1003B000632F2F2B524E7745414E35465341517591
:1003C00030744C5352335038414144642F66344B9F
:1003D000646C4541334141414D4C556C4551565239
:1003E0003432757A57335537444D417947595A75E8
:1003F00077415862344378774663762B3343644DB4
:100400006D6D624B30546A5731533758764F577978
:10041000544B6D727A4B69554141414141414141D3
:100420004141414141414F6A522F6D6B6D4D6C45C9
:100430006D354A52696F436B68706E77614F6A55CC
:10044000795352554E424B6B4B424842742B377492
:1004500035426F327852334B6B757042453261676B
:1004600055477047356170685034536F304274653A
:100470003355474E47596A5563356638307A576F5A
:1004800073446765684D656A564A593056626E4CCA
:1004900065546C47756B6248472F4B634B476F4EF3
:1004A000654C58654F6D5452646A6447527876774C
:1004B000674659314272395A6F6A4D74344E483525
:1004C0006B7557466F5A445147765672775839467E
:1004D0006F614A3256764D594D476F4E74574F559E
:1004E0006334327954676A6F31746A59577953515A
:1004F0003042743161707A4631636A436C7562468A
:100500004552744159584F447867512F7536616987
:100510006A78676F3369394D3547476C754C4A5077
:100520005232323773343752444E6D6A4876393519
:1005300066365A712B762F6A49586D45336A55567F
:10054000755A55454548684952727A482F62417735
:10055000333374694F44353570652B77417164319D
:10056000624A7A394C6A462F6F5A49754E5358324F
:100570004F684D4D6C5A614E65592B6276517443EC
:100580005930396A636265647375715562737A565E
:1005900038376D6C686239787859345662575471BF
:1005A00078637255346A626B4270625562322F48CA
:1005B00035392F396837317833354952684D4D6FA9
:1005C0004971465449496B52366E5772652F7A56B7
:1005D00062577262665A41363268625A4573314CCC
:1005E00039707A75354F53512B4F505A6B74392BE4
:1005F0002B2F4372352F4C57704A57547357412F46
:100600004B4A4C7558304D6170554A306D464B6CB5
:100610002F794269727A6E426B3150504D6A4B5756
:10062000334D616130686339596E42345A716A479B
:100630006D2B4163474D466350696D4C475972734A
:1006400069546E4E5270746347585179666E6B5898
:100650004847644D37532B725045656E5A56692F83
:100660002F6E66327A4D706161396F2B6B784F75E2
:10067000497533305355685A525044594F52597A3C
:10068000482F7463616A4D6B4D58773479706E6290
:100690005079686972784930557776783741496C76
:1006A0005A48575A4D3273396330666C30642F6E36
:1006B00068347A38374B796276417546757A754E6B
:1006C00047527061417357554878335A45665158BF
:1006D000475A4650633652694936566B5A3230781B
:1006E000626F6F477841424D486E42366458666685
:1006F0006D654F7A6B465A33505478683950796932
:100700006548354D67663769625A68383454676F93
:1007100059532F373563366A456D4F7A7658544BA7
:10072000323951424C59417A76654A797656494177
:1007300069485055697871684575754D56665A61B6
:1007400045306238554D6D5937736C486C5A474186
:100750004164545A6A37556943466856644B7A4532
:100760006D3664346C5937765030373161746E357C
:100770005368522B517A655178777731356A4E6CD0
:10078000536837477065553742575A466F6B4A3042
:1007900046785176476342693739344D335970761C
:1007A000714D665A3532497A6F33544F6D444E3528
:1007B00076664E5A2F63514130417A4A39566C451C
:1007C0007871662B4D6E654C48794E6A562B4C35C8
:1007D0003445616C43305750732F754E43787471B4
:1007E0004B666D7A35497676595A797A4C37724329
:1007F0006E39417471714B5A714337736E59354676
:100800007143714D72567169477733654D37796120
:100810004559357754475650376D416D4E345645DE
:100820004364567A7754782F594F33363571494B94
:1008300061547668374868466A72475046737374E5
:1008400045617A4C477045654C366A714D6462313A
:10085000652F79724564716934434861304B647027
:10086000534E5653706E43572F75514A6A746D6FCD
:100870004B4433346B4361614767417A5039614C73
:100880007036776B784A7A44575734664E546E50B8
:10089000382F4257485571366F6F303744624C30AD
:1008A00036395659374C724B394A645230346E6679
:1008B000515A47786B796B4F4F4C4C726D6D323497
:1008C0006D5930585341796D50656F78706879591A
:1008D0007978745464693878476F72694852704CFB
:1008E0005A66555975416F775A716C334A616D5923
:1008F00077316B564A76786D54556A6A6D7A456DD4
:100900004D2F5868634154325632676C464B654BE5
:100910004B7875713631396F75492B6C6A4C4C4B7D
:10092000314A6452303976646A714D4D5A304C32D6
:10093000566352565869356E7A574F485668346632
:10094000786C71714D4E584A6B4B6F524E655A52CE
:10095000305730746157475A6158513156436D755D
:100960003056464E34546F584D5A45785657796430
:100970004E5950796253465344795A3654796D48EA
:10098000564A6D4E39764B4B784F6848647A5768B3
:100990006C4C7A4B33784E42556937453068696CF8
:1009A000484355473833477A47686D4C59736B470E
:1009B000717935684F5443715534574C3339392B5D
:1009C000367332306B5A417A39795A6968327276A5
:1009D0006E77415367786A587935356D7A6E5972FA
:1009E0004970766558517A30706B38475952494290
:1009F0007A52574E316D7758526A303365496E4E90
:100A00004C444531317A6F72744D6F4965477A496C
:100A10003257687A476D505159376D71724D716216
:100A20003047686A4C6439593561303851505779CC
:100A300037704A6679576C52613939704A6A4B6D22
:100A400065317569707471576E61636A35344E57DC
:100A50004D2B346E43744A744C4B45516E353051B6
:100A6000334D4B314C6F57596D5935302B544559D7
:100A70003846716C545938526A7A694A7A5379788F
:100A80004E4A2F71785558497836484E437371470E
:100A900049355A797A596E6F3858425942576C33F2
:100AA00047354D68557948416C383178316D665A13
:100AB000767A7335727136315170666C50383136D2
:100AC000396D6C344E5A4932523674694E38544836
:100AD0005A6D3271794C4861314E773237566874AD
:100AE0007A306F50532F33516D59317765726D697C
:100AF000736273746B4C7367724F6F764D4C6245C3
:100B000031316238544C4B666B51485974416A61BB
:100B10005073656142793759597043706A63674908
:100B2000717842304862575049474B4D6455374CB5
:100B3000426D4B7561776D5230374D5A347A612F63
:100B40002F4D35663756474C57714D3663354A4BF6
:100B5000517267526A476B4C4B4D5A366A446B6907
:100B60006A326C786B62496D7636536E2B766D4ABD
:100B70007A473730326F3874596D66516F55783710
:100B800056475A4D5855434876774756394E426A2C
:100B90005470744E4C47597A78564257715076517A
:100BA000624A4C7A6D61356A58396A5A2F4B52360F
:100BB000745631646E5476494F3945426B544B75C7
:100BC000554C635A6964576F624D53593132424AEA
:100BD00066557A552F5269394762435244556573B9
:100BE0007956695139797670556D7A45354D685623
:100BF00069333352775170334D7976686C72454F53
:100C00004D75616F4E6D614864545370796A6772B7
:100C1000485A484C72557745437A6F6E734B464E2F
:100C2000724D3659524F487967546B6766597778D9
:100C300062456D69717A4E6A512B676446517059ED
:100C40007541574E4C79652B497970714D79513901
:100C50006B7842566441354D77333770363638738A
:100C60003764753574586A4C6D716F6267444162C0
:100C700037636C79676C436F636B374C314A2F581D
:100C800031356952326545672B7A7468426465680C
:100C9000744C544B324A4E42553836773444716D59
:100CA00042704E482F636D79494745746C70344CDF
:100CB00054366F7A70496C497577614F514D64377E
:100CC0007977446D4D696D3347517457557A46793C
:100CD0005970714161507944725878737149464D29
:100CE000343573324A52702F66794669734C6D61A0
:100CF0004D6934777443545456386D50572F3369C7
:100D000055676A506C63676B594B366B7155783712
:100D100031475A4D6A2B386E653266413244514E26
:100D200068754657794159364C6B4D4F4846756A40
:100D30002F2F3574514B486F584875367559557378
:100D4000617048764668426F6E50632F6E5A7864C1
:100D50006662476368592B7A4F4F6F634F6C616CC3
:100D6000585A55794A504A674B3446516C4E52781E
:100D700037397274392B465832487A4C32343554EC
:100D80002F6837454446467854645350704D7A6214
:100D90006F34797959316A7377706B446D4D736232
:100DA000784746776C42366D6E415169584D632FD6
:100DB00030736A436D56486B385A5637444D513339
:100DC000367633335631397031326F77786D694EFC
:100DD0006A614754484A5A476C4C65345668556BAB
:100DE0003046674D2F3552677A4E6A3248614C6FF4
:100DF000765977706B5A346378465A45787A716EB3
:100E00006C483031756D544575597179504576652A
:100E1000674F554A4D566A55635539392F2B305A0D
:100E200034324858616B6A476149324E7335482BFA
:100E30004B592F324B656357477545514E4D3241E3
:100E40006D684C35326A426D626836366973734D2F
:100E500064474A4E626975644B2B7054645776330D
:100E6000614732432F742F4F4B6F656C347977781D
:100E70006D37654E48644E66686D4F7234365974EE
:100E8000436D31386E356A78656B6C66307A5157D0
:100E90004D7559304D6C376957566D5373466941DE
:100EA0006A4F584D5070616B3733734A59397A78AD
:100EB0005944724B3350574F3876656A68715941BF
:100EC000786A6F32514B45612F4D686D6A61596F79
:100ED000736E647973665467672B387148667871EE
:100EE0004F42585669376C37414C6D594D357059E2
:100EF00077356A597958414A4C506D5250567A317B
:100F00006539665430382B667074315438387A3904
:100F10006E766D4958335331327874424B7832359E
:100F20006937446C584D393775774A686359557736
:100F3000446968696A7832615059686B32624D5908
:100F400069302F4875616A466972472F376A486D64
:100F50006170776433665273372F516B665838432C
:100F600059595335677A47316B7541535756684C19
:100F70006E33552F42335749785568785177466715
:100F8000525931566C64587647474D683659793511
:100F90005537426374422B46536672722F67384747
:100FA00059544D66694A4659757A497A44594A45B1
:100FB0003944537A31425536644F504669314B6655
:100FC000466A4A31673771574D715A4868457466A9
:100FD000536D6F79426D494B454238717173655756
:100FE0007079396A30312F30574439737A786B44CD
:100FF0005747784E74782B4D4A74304E5874352FBD
:1010000034524650355070326A5562667741474FC8
:10101000326162742F397768754C6D4B6B5552583D
:10102000686E78756E54706841714366695378686C
:10103000546977626D5973613852715A4C544575D1
:10104000764B613574615168485A464A6E41776FF4
:1010500056326F795A594137624D365A4168755345
:1010600068506D7233434F79653061347A496E51FF
:1010700033637647762B6F4B47416838663151466C
:101080006C44347A5A70754D7746752F53545569B0
:10109000354D76454232426C3177746F57666267E0
:1010A000553363675957395178467A4E6D4E624CC5
:1010B000684573505379767435464D426930644CB7
:1010C000684B474B637956686E5442533546324FEE
:1010D000486B544D31724D636D4B744C79474A34B3
:1010E0003234686B4E656A385A4330787A4F4755C8
:1010F0004E34383076694639344D75496172303531
:1011000069444D6E763278686A697A726D59736196
:101110003852715A4C4C45737272344F754869336A
:101120006C316A655365626C493833316A62585074
:101130004734436764684563777435794D635A571C
:101140005A7841576568597835706945744C317AD9
:101150004D57446A566B75794F627164766E3746A7
:101160006150324C4D763045642F354578723548A4
:101170007045737653327575676933473343444C12
:101180004F4F4B36696B4C4679704F6F64476550D3
:10119000434A44622B4353584B30307436494F44D2
:1011A0007642764A2B4A474F6861634C45736765C0
:1011B0004473664464476E7A4F3530416D647254AF
:1011C000376B477774594177746170754C47664D3A
:1011D000616D5334784C6130637833676231786B7A
:1011E00073466552434E4C414B47577448367241E3
:1011F000565933774E45705051356C34342F504D1D
:101200002F4F6D6570332B48435378336D783376A9
:1012100054394A496433385A34504559672B7A67F0
:1012200074795471704672314B75626B35337266E6
:101230004A6861304D714454487A526C70786D74CC
:101240006B7573537974445A6A484634564B313639
:10125000315077716B4B57424D6C6D6D6E37656BCE
:1012600064663650563841394978736C74754A7AD9
:10127000677656396B656A6479367A534B734B5689
:101280006969394A63724C695236524A61326D5A01
:101290002F5258754A63304542466B586A5A684720
:1012A0004D57644D65707830796C6B71744563642B
:1012B000456E6F346261667168315672627344784C
:1012C000334C31796C6D6F796C39716C585A347A52
:1012D000397632417156616768596D7A696343772F
:1012E0005A532B31544B2B7976574A6C5642333232
:1012F00052537344594756516D59366D64616F5559
:101300003452705171416C6D6F356A4A476A6B7324
:10131000796C7471704875634557542B4C47434D35
:101320004169487978717373594D79764A57477195
:101330006E576D557637736D4D53733162426C3114
:10134000416B386B594A32306C59366D646170317B
:101350003353694258324957516C54387A3873566E
:101360006D6A4E387A484A4B7831453631446D4D76
:101370004E424156627677324E6758457947615002
:10138000746B6F796C397171563376453365497377
:10139000755554684D6630334A6E7933476D44361F
:1013A0005A6B72485558765834376E586A474974A4
:1013B00059327255796930464E4B4252654D35452A
:1013C00078556C79547364527564646D6A34375A15
:1013D0002F324D2F6A304D31305142464B5658799D
:1013E00065796B5654713835316E6845653576468A
:1013F000454C4A564B70564B705643715653715676
:1014000053715651716C55716C55716E553934323A
:1014100043555141444141517245304C79644B39F7
:10142000374141414141456C46546B5375516D43C1
:1014300043272F3E3C2F6469763E3C2F703E3C6232
:1014400072202F3E000000003C703E3C68333E504E
:10145000616E656C636F6E74726F6C6C6572204D3B
:101460006F6E69746F723C2F68333E3C2F703E3C48
:10147000703E53657269616C204E756D6265723A9B
:101480002025733C2F703E3C703E5261636B2049B7
:10149000443A2025733C2F703E3C703E50616E658F
:1014A0006C2049443A2025733C2F703E3C703E50DE
:1014B00043552049503A2025642E25642E25642E5C
:1014C00025643C2F703E3C703E504355204D4143B7
:1014D0003A20253032783A253032783A2530327841
:1014E0003A253032783A253032783A253032783C15
:1014F0002F703E3C703E557074696D653A202564CE
:10150000207365636F6E64733C2F703E3C703E4683
:1015100072656520686561703A202564206279747F
:1015200065733C2F703E3C703E54656D7065726112
:10153000747572653A20252E316620433C2F703E2B
:101540003C703E566F6C746167653A20252E32669A
:1015500020563C2F703E3C666F726D20616374694B
:101560006F6E3D22736266665F4D4F44455F415525
:10157000544F5F5245414422206D6574686F643D4D
:1015800022706F7374223E3C627574746F6E3E6598
:101590006E61626C6520616C6C2073656E736F7236
:1015A000626172733C2F627574746F6E3E3C2F667D
:1015B0006F726D3E3C666F726D20616374696F6E11
:1015C0003D22736266665F4D4F44455F4449534117
:1015D000424C454422206D6574686F643D22706FF3
:1015E0007374223E3C627574746F6E3E64697361FD
:1015F000626C6520616C6C2073656E736F726261E2
:1016000072733C2F627574746F6E3E3C2F666F72FE
:101610006D3E3C666F726D20616374696F6E3D2232
:10162000736266665F7273745F6D5F6379636C6526
:101630007322206D6574686F643D22706F7374222D
:101640003E3C627574746F6E3E72657365742061A2
:101650006C6C206D6174696E67206379636C65736F
:101660003C2F627574746F6E3E3C2F666F726D3ED8
:101670003C627574746F6E206F6E636C69636B3D52
:10168000226C6F636174696F6E2E687265663D27A8
:101690002F736266665F73625F6F766572766965E7
:1016A00077272220747970653D27627574746F6E98
:1016B000273E73656E736F72626172206F7665721A
:1016C000766965773C2F627574746F6E3E3C2F703F
:1016D0003E3C6272202F3E3C703E3C68333E436F7E
:1016E0006E6E656374696F6E2053657474696E679E
:1016F000733C2F68333E3C2F703E3C666F726D200A
:10170000616374696F6E3D222F7365745F69702227
:101710003E495020416464726573733C62723E3C82
:10172000696E70757420747970653D226E756D6296
:10173000657222206E616D653D2249503122206D17
:10174000696E3D223022206D61783D22323535228E
:101750002076616C75653D222564223E2E3C696EC3
:1017600070757420747970653D226E756D62657256
:1017700022206E616D653D2249503222206D696ED6
:101780003D223022206D61783D223235352220768F
:10179000616C75653D222564223E2E3C696E707534
:1017A0007420747970653D226E756D6265722220B9
:1017B0006E616D653D2249503322206D696E3D2278
:1017C0003022206D61783D22323535222076616CE1
:1017D00075653D222564223E2E3C696E707574202D
:1017E000747970653D226E756D62657222206E613E
:1017F0006D653D2249503422206D696E3D223022B4
:10180000206D61783D22323535222076616C756518
:101810003D222564223E3C62723E4E65746D6173CA
:101820006B3C62723E3C696E7075742074797065B1
:101830003D226E756D62657222206E616D653D227E
:101840004E45544D3122206D696E3D223022206D6F
:1018500061783D22323535222076616C75653D22F6
:101860002564223E2E3C696E707574207479706513
:101870003D226E756D62657222206E616D653D223E
:101880004E45544D3222206D696E3D223022206D2E
:1018900061783D22323535222076616C75653D22B6
:1018A0002564223E2E3C696E7075742074797065D3
:1018B0003D226E756D62657222206E616D653D22FE
:1018C0004E45544D3322206D696E3D223022206DED
:1018D00061783D22323535222076616C75653D2276
:1018E0002564223E2E3C696E707574207479706593
:1018F0003D226E756D62657222206E616D653D22BE
:101900004E45544D3422206D696E3D223022206DAB
:1019100061783D22323535222076616C75653D2235
:101920002564223E3C62723E476174657761793C72
:1019300062723E3C696E70757420747970653D22E8
:101940006E756D62657222206E616D653D22474144
:1019500054453122206D696E3D223022206D617820
:101960003D22323535222076616C75653D22256435
:10197000223E2E3C696E70757420747970653D222C
:101980006E756D62657222206E616D653D22474104
:1019900054453222206D696E3D223022206D6178DF
:1019A0003D22323535222076616C75653D222564F5
:1019B000223E2E3C696E70757420747970653D22EC
:1019C0006E756D62657222206E616D653D224741C4
:1019D00054453322206D696E3D223022206D61789E
:1019E0003D22323535222076616C75653D222564B5
:1019F000223E2E3C696E70757420747970653D22AC
:101A00006E756D62657222206E616D653D22474183
:101A100054453422206D696E3D223022206D61785C
:101A20003D22323535222076616C75653D22256474
:101A3000223E3C62723E446F6D61696E204E616D64
:101A400065205365727665723C62723E3C696E70C9
:101A5000757420747970653D226E756D62657222B1
:101A6000206E616D653D22444E533122206D696EBA
:101A70003D223022206D61783D223235352220769C
:101A8000616C75653D222564223E2E3C696E707541
:101A90007420747970653D226E756D6265722220C6
:101AA0006E616D653D22444E533222206D696E3D5C
:101AB000223022206D61783D223235352220766138
:101AC0006C75653D222564223E2E3C696E707574EE
:101AD00020747970653D226E756D62657222206E8C
:101AE000616D653D22444E533322206D696E3D2267
:101AF0003022206D61783D22323535222076616CAE
:101B000075653D222564223E2E3C696E70757420F9
:101B1000747970653D226E756D62657222206E610A
:101B20006D653D22444E533422206D696E3D223056
:101B300022206D61783D22323535222076616C7528
:101B4000653D222564223E3C62723E3C696E7075A2
:101B50007420747970653D227375626D69742220FA
:101B600076616C75653D227375626D6974223E3CC9
:101B70002F666F726D3E3C666F726D206163746993
:101B80006F6E3D222F7365745F6D6163223E4D4120
:101B900043204164647265737320286D75737420EB
:101BA0006265206964656E746963616C207769742D
:101BB0006820746865204D414320616464726573D8
:101BC00073206F6E2074686520706375207374696C
:101BD000636B6572293C62723E3C696E707574205D
:101BE000747970653D227465787422206E616D652C
:101BF0003D224D414331222076616C75653D2225A1
:101C0000303278223E3A3C696E7075742074797077
:101C1000653D227465787422206E616D653D224DAC
:101C2000414332222076616C75653D222530327841
:101C3000223E3A3C696E70757420747970653D225D
:101C40007465787422206E616D653D224D41433389
:101C5000222076616C75653D2225303278223E3A2D
:101C60003C696E70757420747970653D2274657876
:101C70007422206E616D653D224D414334222076F1
:101C8000616C75653D2225303278223E3A3C696EA2
:101C900070757420747970653D22746578742220A3
:101CA0006E616D653D224D414335222076616C7534
:101CB000653D2225303278223E3A3C696E7075745B
:101CC00020747970653D227465787422206E616D90
:101CD000653D224D414336222076616C75653D227B
:101CE00025303278223E3C62723E3C696E707574DB
:101CF00020747970653D227375626D697422207657
:101D0000616C75653D227375626D6974223E3C2F6E
:101D1000666F726D3E3C6272202F3E003C703E3C0E
:101D200068333E53656E736F72626172204F7665E1
:101D300072766965773C2F68333E3C2F703E3C706D
:101D40003E53656E736F7262617220313A20257363
:101D5000203C2F703E3C703E3C627574746F6E2068
:101D60006F6E636C69636B3D226C6F636174696F46
:101D70006E2E687265663D272F73623127222073AD
:101D800074796C653D2277696474683A203131302A
:101D90003B206865696768743A20333070783B226D
:101DA00020747970653D27627574746F6E273E5399
:101DB0007461746973746963733C2F627574746FB2
:101DC0006E3E3C2F703E3C7461626C6520626F72A7
:101DD0006465723D2231223E3C74626F64793E3C00
:101DE00074723E3C74643E3C2F74643E3C74643EAA
:101DF0003C627574746F6E206F6E636C69636B3DCB
:101E0000226C6F636174696F6E2E687265663D2720
:101E10002F7362315F70312722207374796C653DB6
:101E20002277696474683A203131303B20686569F3
:101E30006768743A20333070783B2220747970657B
:101E40003D27627574746F6E273E506F72742D2D2E
:101E5000313C2F627574746F6E3E3C2F74643E3C4F
:101E600074643E3C627574746F6E206F6E636C694F
:101E7000636B3D226C6F636174696F6E2E6872656F
:101E8000663D272F7362315F703227222073747989
:101E90006C653D2277696474683A203131303B20AB
:101EA0006865696768743A20333070783B22207423
:101EB0007970653D27627574746F6E273E506F723E
:101EC000742D2D323C2F627574746F6E3E3C2F74EE
:101ED000643E3C74643E3C627574746F6E206F6E39
:101EE000636C69636B3D226C6F636174696F6E2E06
:101EF000687265663D272F7362315F703327222039
:101F00007374796C653D2277696474683A20313165
:101F1000303B206865696768743A20333070783BDD
:101F20002220747970653D27627574746F6E273E48
:101F3000506F72742D2D333C2F627574746F6E3E2A
:101F40003C2F74643E3C74643E3C627574746F6EE6
:101F5000206F6E636C69636B3D226C6F63617469A3
:101F60006F6E2E687265663D272F7362315F703425
:101F70002722207374796C653D2277696474683A0E
:101F8000203131303B206865696768743A2033300E
:101F900070783B2220747970653D27627574746F88
:101FA0006E273E506F72742D2D343C2F6275747401
:101FB0006F6E3E3C2F74643E3C74643E3C627574AC
:101FC000746F6E206F6E636C69636B3D226C6F6320
:101FD0006174696F6E2E687265663D272F7362317A
:101FE0005F70352722207374796C653D22776964B0
:101FF00074683A203131303B206865696768743A0B
:1020000020333070783B2220747970653D276275EB
:1020100074746F6E273E506F72742D2D353C2F6295
:102020007574746F6E3E3C2F74643E3C74643E3C29
:10203000627574746F6E206F6E636C69636B3D22A2
:102040006C6F636174696F6E2E687265663D272FD1
:102050007362315F70362722207374796C653D227C
:1020600077696474683A203131303B20686569676C
:1020700068743A20333070783B2220747970653D63
:1020800027627574746F6E273E506F72742D2D36F3
:102090003C2F627574746F6E3E3C2F74643E3C74CA
:1020A000643E3C627574746F6E206F6E636C69631E
:1020B0006B3D226C6F636174696F6E2E687265662A
:1020C0003D272F7362315F70372722207374796C3C
:1020D000653D2277696474683A203131303B20686D
:1020E00065696768743A20333070783B22207479D0
:1020F00070653D27627574746F6E273E506F727401
:102100002D2D373C2F627574746F6E3E3C2F7464B6
:102110003E3C74643E3C627574746F6E206F6E63F7
:102120006C69636B3D226C6F636174696F6E2E68BE
:102130007265663D272F7362315F703827222073E6
:1021400074796C653D2277696474683A2031313066
:102150003B206865696768743A20333070783B22A9
:1021600020747970653D27627574746F6E273E50D8
:102170006F72742D2D383C2F627574746F6E3E3CF7
:102180002F74643E3C74643E3C627574746F6E20C0
:102190006F6E636C69636B3D226C6F636174696F12
:1021A0006E2E687265663D272F7362315F70392726
:1021B00022207374796C653D2277696474683A20D3
:1021C0003131303B206865696768743A203330707C
:1021D000783B2220747970653D27627574746F6E48
:1021E000273E506F72742D2D393C2F627574746FB9
:1021F0006E3E3C2F74643E3C74643E3C6275747465
:102200006F6E206F6E636C69636B3D226C6F6361F0
:1022100074696F6E2E687265663D272F7362315F39
:102220007031302722207374796C653D22776964A0
:1022300074683A203131303B206865696768743AC8
:1022400020333070783B2220747970653D276275A9
:1022500074746F6E273E506F72742D31303C2F6254
:102260007574746F6E3E3C2F74643E3C74643E3CE7
:10227000627574746F6E206F6E636C69636B3D2260
:102280006C6F636174696F6E2E687265663D272F8F
:102290007362315F7031312722207374796C653D30
:1022A0002277696474683A203131303B206865696F
:1022B0006768743A20333070783B222074797065F7
:1022C0003D27627574746F6E273E506F72742D31A6
:1022D000313C2F627574746F6E3E3C2F74643E3CCB
:1022E00074643E3C627574746F6E206F6E636C69CB
:1022F000636B3D226C6F636174696F6E2E687265EB
:10230000663D272F7362315F70313227222073744C
:10231000796C653D2277696474683A203131303BCD
:10232000206865696768743A20333070783B2220F2
:10233000747970653D27627574746F6E273E506FB7
:1023400072742D31323C2F627574746F6E3E3C2F67
:1023500074643E3C74643E3C627574746F6E206FAE
:102360006E636C69636B3D226C6F636174696F6E41
:102370002E687265663D272F7362315F7031332797
:1023800022207374796C653D2277696474683A2001
:102390003131303B206865696768743A20333070AA
:1023A000783B2220747970653D27627574746F6E76
:1023B000273E506F72742D31333C2F627574746FE9
:1023C0006E3E3C2F74643E3C74643E3C6275747493
:1023D0006F6E206F6E636C69636B3D226C6F63611F
:1023E00074696F6E2E687265663D272F7362315F68
:1023F0007031342722207374796C653D22776964CB
:1024000074683A203131303B206865696768743AF6
:1024100020333070783B2220747970653D276275D7
:1024200074746F6E273E506F72742D31343C2F627E
:102430007574746F6E3E3C2F74643E3C2F74723E14
:10244000000000003C703E53656E736F72626172F3
:1024500020323A202573203C2F703E3C703E3C6277
:102460007574746F6E206F6E636C69636B3D226C64
:102470006F636174696F6E2E687265663D272F7396
:1024800062322722207374796C653D227769647407
:10249000683A203131303B206865696768743A20BA
:1024A000333070783B2220747970653D27627574F3
:1024B000746F6E273E537461746973746963733CFF
:1024C0002F627574746F6E3E3C2F703E3C74616277
:1024D0006C6520626F726465723D2231223E3C74ED
:1024E000626F64793E3C74723E3C74643E3C2F746F
:1024F000643E3C74643E3C627574746F6E206F6E13
:10250000636C69636B3D226C6F636174696F6E2EDF
:10251000687265663D272F7362325F703127222013
:102520007374796C653D2277696474683A2031313F
:10253000303B206865696768743A20333070783BB7
:102540002220747970653D27627574746F6E273E22
:10255000506F72742D2D313C2F627574746F6E3E06
:102560003C2F74643E3C74643E3C627574746F6EC0
:10257000206F6E636C69636B3D226C6F636174697D
:102580006F6E2E687265663D272F7362325F703200
:102590002722207374796C653D2277696474683AE8
:1025A000203131303B206865696768743A203330E8
:1025B00070783B2220747970653D27627574746F62
:1025C0006E273E506F72742D2D323C2F62757474DD
:1025D0006F6E3E3C2F74643E3C74643E3C62757486
:1025E000746F6E206F6E636C69636B3D226C6F63FA
:1025F0006174696F6E2E687265663D272F73623253
:102600005F70332722207374796C653D227769648B
:1026100074683A203131303B206865696768743AE4
:1026200020333070783B2220747970653D276275C5
:1026300074746F6E273E506F72742D2D333C2F6271
:102640007574746F6E3E3C2F74643E3C74643E3C03
:10265000627574746F6E206F6E636C69636B3D227C
:102660006C6F636174696F6E2E687265663D272FAB
:102670007362325F70342722207374796C653D2257
:1026800077696474683A203131303B206865696746
:1026900068743A20333070783B2220747970653D3D
:1026A00027627574746F6E273E506F72742D2D34CF
:1026B0003C2F627574746F6E3E3C2F74643E3C74A4
:1026C000643E3C627574746F6E206F6E636C6963F8
:1026D0006B3D226C6F636174696F6E2E6872656604
:1026E0003D272F7362325F70352722207374796C17
:1026F000653D2277696474683A203131303B206847
:1027000065696768743A20333070783B22207479A9
:1027100070653D27627574746F6E273E506F7274DA
:102720002D2D353C2F627574746F6E3E3C2F746492
:102730003E3C74643E3C627574746F6E206F6E63D1
:102740006C69636B3D226C6F636174696F6E2E6898
:102750007265663D272F7362325F703627222073C1
:1027600074796C653D2277696474683A2031313040
:102770003B206865696768743A20333070783B2283
:1027800020747970653D27627574746F6E273E50B2
:102790006F72742D2D363C2F627574746F6E3E3CD3
:1027A0002F74643E3C74643E3C627574746F6E209A
:1027B0006F6E636C69636B3D226C6F636174696FEC
:1027C0006E2E687265663D272F7362325F70372701
:1027D00022207374796C653D2277696474683A20AD
:1027E0003131303B206865696768743A2033307056
:1027F000783B2220747970653D27627574746F6E22
:10280000273E506F72742D2D373C2F627574746F94
:102810006E3E3C2F74643E3C74643E3C627574743E
:102820006F6E206F6E636C69636B3D226C6F6361CA
:1028300074696F6E2E687265663D272F7362325F12
:1028400070382722207374796C653D22776964742F
:10285000683A203131303B206865696768743A20F6
:10286000333070783B2220747970653D276275742F
:10287000746F6E273E506F72742D2D383C2F627529
:1028800074746F6E3E3C2F74643E3C74643E3C62D4
:102890007574746F6E206F6E636C69636B3D226C30
:1028A0006F636174696F6E2E687265663D272F7362
:1028B00062325F70392722207374796C653D22770C
:1028C000696474683A203131303B20686569676813
:1028D000743A20333070783B2220747970653D273C
:1028E000627574746F6E273E506F72742D2D393C73
:1028F0002F627574746F6E3E3C2F74643E3C74643A
:102900003E3C627574746F6E206F6E636C69636BAE
:102910003D226C6F636174696F6E2E687265663DEF
:10292000272F7362325F7031302722207374796CE5
:10293000653D2277696474683A203131303B206804
:1029400065696768743A20333070783B2220747967
:1029500070653D27627574746F6E273E506F727498
:102960002D31303C2F627574746F6E3E3C2F746451
:102970003E3C74643E3C627574746F6E206F6E638F
:102980006C69636B3D226C6F636174696F6E2E6856
:102990007265663D272F7362325F703131272220C6
:1029A0007374796C653D2277696474683A203131BB
:1029B000303B206865696768743A20333070783B33
:1029C0002220747970653D27627574746F6E273E9E
:1029D000506F72742D31313C2F627574746F6E3E7E
:1029E0003C2F74643E3C74643E3C627574746F6E3C
:1029F000206F6E636C69636B3D226C6F63617469F9
:102A00006F6E2E687265663D272F7362325F70317C
:102A1000322722207374796C653D2277696474686B
:102A20003A203131303B206865696768743A203359
:102A30003070783B2220747970653D27627574741C
:102A40006F6E273E506F72742D31323C2F62757459
:102A5000746F6E3E3C2F74643E3C74643E3C627501
:102A600074746F6E206F6E636C69636B3D226C6F64
:102A7000636174696F6E2E687265663D272F73629D
:102A8000325F7031332722207374796C653D227771
:102A9000696474683A203131303B20686569676841
:102AA000743A20333070783B2220747970653D276A
:102AB000627574746F6E273E506F72742D31333CA3
:102AC0002F627574746F6E3E3C2F74643E3C746468
:102AD0003E3C627574746F6E206F6E636C69636BDD
:102AE0003D226C6F636174696F6E2E687265663D1E
:102AF000272F7362325F7031342722207374796C10
:102B0000653D2277696474683A203131303B206832
:102B100065696768743A20333070783B2220747995
:102B200070653D27627574746F6E273E506F7274C6
:102B30002D31343C2F627574746F6E3E3C2F74647B
:102B40003E3C2F74723E00003C703E53656E736FC6
:102B50007262617220333A202573203C2F703E3C14
:102B6000703E3C627574746F6E206F6E636C696347
:102B70006B3D226C6F636174696F6E2E687265665F
:102B80003D272F7362332722207374796C653D22B1
:102B900077696474683A203131303B206865696731
:102BA00068743A20333070783B2220747970653D28
:102BB00027627574746F6E273E5374617469737401
:102BC0006963733C2F627574746F6E3E3C2F703E68
:102BD0003C7461626C6520626F726465723D223183
:102BE000223E3C74626F64793E3C74723E3C746475
:102BF0003E3C2F74643E3C74643E3C627574746F5A
:102C00006E206F6E636C69636B3D226C6F636174E1
:102C1000696F6E2E687265663D272F7362335F7031
:102C2000312722207374796C653D2277696474685A
:102C30003A203131303B206865696768743A203347
:102C40003070783B2220747970653D27627574740A
:102C50006F6E273E506F72742D2D313C2F6275744C
:102C6000746F6E3E3C2F74643E3C74643E3C6275EF
:102C700074746F6E206F6E636C69636B3D226C6F52
:102C8000636174696F6E2E687265663D272F73628B
:102C9000335F70322722207374796C653D22776927
:102CA0006474683A203131303B2068656967687424
:102CB0003A20333070783B2220747970653D27626A
:102CC0007574746F6E273E506F72742D2D323C2FC9
:102CD000627574746F6E3E3C2F74643E3C74643E47
:102CE0003C627574746F6E206F6E636C69636B3DCC
:102CF000226C6F636174696F6E2E687265663D2722
:102D00002F7362335F70332722207374796C653DB3
:102D10002277696474683A203131303B20686569F4
:102D20006768743A20333070783B2220747970657C
:102D30003D27627574746F6E273E506F72742D2D2F
:102D4000333C2F627574746F6E3E3C2F74643E3C4E
:102D500074643E3C627574746F6E206F6E636C6950
:102D6000636B3D226C6F636174696F6E2E68726570
:102D7000663D272F7362335F703427222073747986
:102D80006C653D2277696474683A203131303B20AC
:102D90006865696768743A20333070783B22207424
:102DA0007970653D27627574746F6E273E506F723F
:102DB000742D2D343C2F627574746F6E3E3C2F74ED
:102DC000643E3C74643E3C627574746F6E206F6E3A
:102DD000636C69636B3D226C6F636174696F6E2E07
:102DE000687265663D272F7362335F703527222036
:102DF0007374796C653D2277696474683A20313167
:102E0000303B206865696768743A20333070783BDE
:102E10002220747970653D27627574746F6E273E49
:102E2000506F72742D2D353C2F627574746F6E3E29
:102E30003C2F74643E3C74643E3C627574746F6EE7
:102E4000206F6E636C69636B3D226C6F63617469A4
:102E50006F6E2E687265663D272F7362335F703622
:102E60002722207374796C653D2277696474683A0F
:102E7000203131303B206865696768743A2033300F
:102E800070783B2220747970653D27627574746F89
:102E90006E273E506F72742D2D363C2F6275747400
:102EA0006F6E3E3C2F74643E3C74643E3C627574AD
:102EB000746F6E206F6E636C69636B3D226C6F6321
:102EC0006174696F6E2E687265663D272F73623379
:102ED0005F70372722207374796C653D22776964AF
:102EE00074683A203131303B206865696768743A0C
:102EF00020333070783B2220747970653D276275ED
:102F000074746F6E273E506F72742D2D373C2F6294
:102F10007574746F6E3E3C2F74643E3C74643E3C2A
:102F2000627574746F6E206F6E636C69636B3D22A3
:102F30006C6F636174696F6E2E687265663D272FD2
:102F40007362335F70382722207374796C653D2279
:102F500077696474683A203131303B20686569676D
:102F600068743A20333070783B2220747970653D64
:102F700027627574746F6E273E506F72742D2D38F2
:102F80003C2F627574746F6E3E3C2F74643E3C74CB
:102F9000643E3C627574746F6E206F6E636C69631F
:102FA0006B3D226C6F636174696F6E2E687265662B
:102FB0003D272F7362335F70392722207374796C39
:102FC000653D2277696474683A203131303B20686E
:102FD00065696768743A20333070783B22207479D1
:102FE00070653D27627574746F6E273E506F727402
:102FF0002D2D393C2F627574746F6E3E3C2F7464B6
:103000003E3C74643E3C627574746F6E206F6E63F8
:103010006C69636B3D226C6F636174696F6E2E68BF
:103020007265663D272F7362335F7031302722202F
:103030007374796C653D2277696474683A20313124
:10304000303B206865696768743A20333070783B9C
:103050002220747970653D27627574746F6E273E07
:10306000506F72742D31303C2F627574746F6E3EE8
:103070003C2F74643E3C74643E3C627574746F6EA5
:10308000206F6E636C69636B3D226C6F6361746962
:103090006F6E2E687265663D272F7362335F7031E5
:1030A000312722207374796C653D227769647468D6
:1030B0003A203131303B206865696768743A2033C3
:1030C0003070783B2220747970653D276275747486
:1030D0006F6E273E506F72742D31313C2F627574C4
:1030E000746F6E3E3C2F74643E3C74643E3C62756B
:1030F00074746F6E206F6E636C69636B3D226C6FCE
:10310000636174696F6E2E687265663D272F736206
:10311000335F7031322722207374796C653D2277DA
:10312000696474683A203131303B206865696768AA
:10313000743A20333070783B2220747970653D27D3
:10314000627574746F6E273E506F72742D31323C0D
:103150002F627574746F6E3E3C2F74643E3C7464D1
:103160003E3C627574746F6E206F6E636C69636B46
:103170003D226C6F636174696F6E2E687265663D87
:10318000272F7362335F7031332722207374796C79
:10319000653D2277696474683A203131303B20689C
:1031A00065696768743A20333070783B22207479FF
:1031B00070653D27627574746F6E273E506F727430
:1031C0002D31333C2F627574746F6E3E3C2F7464E6
:1031D0003E3C74643E3C627574746F6E206F6E6327
:1031E0006C69636B3D226C6F636174696F6E2E68EE
:1031F0007265663D272F7362335F7031342722205A
:103200007374796C653D2277696474683A20313152
:10321000303B206865696768743A20333070783BCA
:103220002220747970653D27627574746F6E273E35
:10323000506F72742D31343C2F627574746F6E3E12
:103240003C2F74643E3C2F74723E00003C703E5331
:10325000656E736F7262617220343A202573203C70
:103260002F703E3C703E3C627574746F6E206F6EC2
:10327000636C69636B3D226C6F636174696F6E2E62
:10328000687265663D272F73623427222073747934
:103290006C653D2277696474683A203131303B2097
:1032A0006865696768743A20333070783B2220740F
:1032B0007970653D27627574746F6E273E53746133
:1032C000746973746963733C2F627574746F6E3EB6
:1032D0003C2F703E3C7461626C6520626F72646565
:1032E000723D2231223E3C74626F64793E3C7472BE
:1032F0003E3C74643E3C2F74643E3C74643E3C62CD
:103300007574746F6E206F6E636C69636B3D226CB5
:103310006F636174696F6E2E687265663D272F73E7
:1033200062345F70312722207374796C653D227797
:10333000696474683A203131303B20686569676898
:10334000743A20333070783B2220747970653D27C1
:10335000627574746F6E273E506F72742D2D313C00
:103360002F627574746F6E3E3C2F74643E3C7464BF
:103370003E3C627574746F6E206F6E636C69636B34
:103380003D226C6F636174696F6E2E687265663D75
:10339000272F7362345F70322722207374796C6533
:1033A0003D2277696474683A203131303B2068658A
:1033B000696768743A20333070783B2220747970E2
:1033C000653D27627574746F6E273E506F72742D61
:1033D0002D323C2F627574746F6E3E3C2F74643EC8
:1033E0003C74643E3C627574746F6E206F6E636CE7
:1033F00069636B3D226C6F636174696F6E2E6872D6
:1034000065663D272F7362345F7033272220737403
:10341000796C653D2277696474683A203131303BBC
:10342000206865696768743A20333070783B2220E1
:10343000747970653D27627574746F6E273E506FA6
:1034400072742D2D333C2F627574746F6E3E3C2F59
:1034500074643E3C74643E3C627574746F6E206F9D
:103460006E636C69636B3D226C6F636174696F6E30
:103470002E687265663D272F7362345F7034272291
:10348000207374796C653D2277696474683A2031E1
:1034900031303B206865696768743A203330707852
:1034A0003B2220747970653D27627574746F6E27B6
:1034B0003E506F72742D2D343C2F627574746F6E94
:1034C0003E3C2F74643E3C74643E3C627574746F81
:1034D0006E206F6E636C69636B3D226C6F63617409
:1034E000696F6E2E687265663D272F7362345F7058
:1034F000352722207374796C653D2277696474687E
:103500003A203131303B206865696768743A20336E
:103510003070783B2220747970653D276275747431
:103520006F6E273E506F72742D2D353C2F6275746F
:10353000746F6E3E3C2F74643E3C74643E3C627516
:1035400074746F6E206F6E636C69636B3D226C6F79
:10355000636174696F6E2E687265663D272F7362B2
:10356000345F70362722207374796C653D22776949
:103570006474683A203131303B206865696768744B
:103580003A20333070783B2220747970653D276291
:103590007574746F6E273E506F72742D2D363C2FEC
:1035A000627574746F6E3E3C2F74643E3C74643E6E
:1035B0003C627574746F6E206F6E636C69636B3DF3
:1035C000226C6F636174696F6E2E687265663D2749
:1035D0002F7362345F70372722207374796C653DD6
:1035E0002277696474683A203131303B206865691C
:1035F0006768743A20333070783B222074797065A4
:103600003D27627574746F6E273E506F72742D2D56
:10361000373C2F627574746F6E3E3C2F74643E3C71
:1036200074643E3C627574746F6E206F6E636C6977
:10363000636B3D226C6F636174696F6E2E68726597
:10364000663D272F7362345F7038272220737479A8
:103650006C653D2277696474683A203131303B20D3
:103660006865696768743A20333070783B2220744B
:103670007970653D27627574746F6E273E506F7266
:10368000742D2D383C2F627574746F6E3E3C2F7410
:10369000643E3C74643E3C627574746F6E206F6E61
:1036A000636C69636B3D226C6F636174696F6E2E2E
:1036B000687265663D272F7362345F703927222058
:1036C0007374796C653D2277696474683A2031318E
:1036D000303B206865696768743A20333070783B06
:1036E0002220747970653D27627574746F6E273E71
:1036F000506F72742D2D393C2F627574746F6E3E4D
:103700003C2F74643E3C74643E3C627574746F6E0E
:10371000206F6E636C69636B3D226C6F63617469CB
:103720006F6E2E687265663D272F7362345F70314D
:10373000302722207374796C653D22776964746840
:103740003A203131303B206865696768743A20332C
:103750003070783B2220747970653D2762757474EF
:103760006F6E273E506F72742D31303C2F6275742E
:10377000746F6E3E3C2F74643E3C74643E3C6275D4
:1037800074746F6E206F6E636C69636B3D226C6F37
:10379000636174696F6E2E687265663D272F736270
:1037A000345F7031312722207374796C653D227744
:1037B000696474683A203131303B20686569676814
:1037C000743A20333070783B2220747970653D273D
:1037D000627574746F6E273E506F72742D31313C78
:1037E0002F627574746F6E3E3C2F74643E3C74643B
:1037F0003E3C627574746F6E206F6E636C69636BB0
:103800003D226C6F636174696F6E2E687265663DF0
:10381000272F7362345F7031322722207374796CE2
:10382000653D2277696474683A203131303B206805
:1038300065696768743A20333070783B2220747968
:1038400070653D27627574746F6E273E506F727499
:103850002D31323C2F627574746F6E3E3C2F746450
:103860003E3C74643E3C627574746F6E206F6E6390
:103870006C69636B3D226C6F636174696F6E2E6857
:103880007265663D272F7362345F703133272220C3
:103890007374796C653D2277696474683A203131BC
:1038A000303B206865696768743A20333070783B34
:1038B0002220747970653D27627574746F6E273E9F
:1038C000506F72742D31333C2F627574746F6E3E7D
:1038D0003C2F74643E3C74643E3C627574746F6E3D
:1038E000206F6E636C69636B3D226C6F63617469FA
:1038F0006F6E2E687265663D272F7362345F70317C
:10390000342722207374796C653D2277696474686A
:103910003A203131303B206865696768743A20335A
:103920003070783B2220747970653D27627574741D
:103930006F6E273E506F72742D31343C2F62757458
:10394000746F6E3E3C2F74643E3C2F74723E0000D8
:103950003C703E53656E736F7262617220353A201F
:103960002573203C2F703E3C703E3C627574746F32
:103970006E206F6E636C69636B3D226C6F63617464
:10398000696F6E2E687265663D272F736235272238
:10399000207374796C653D2277696474683A2031CC
:1039A00031303B206865696768743A20333070783D
:1039B0003B2220747970653D27627574746F6E27A1
:1039C0003E537461746973746963733C2F627574D8
:1039D000746F6E3E3C2F703E3C7461626C65206279
:1039E0006F726465723D2231223E3C74626F64796D
:1039F0003E3C74723E3C74643E3C2F74643E3C74A6
:103A0000643E3C627574746F6E206F6E636C6963A4
:103A10006B3D226C6F636174696F6E2E68726566B0
:103A20003D272F7362355F70312722207374796CC4
:103A3000653D2277696474683A203131303B2068F3
:103A400065696768743A20333070783B2220747956
:103A500070653D27627574746F6E273E506F727487
:103A60002D2D313C2F627574746F6E3E3C2F746443
:103A70003E3C74643E3C627574746F6E206F6E637E
:103A80006C69636B3D226C6F636174696F6E2E6845
:103A90007265663D272F7362355F7032272220736F
:103AA00074796C653D2277696474683A20313130ED
:103AB0003B206865696768743A20333070783B2230
:103AC00020747970653D27627574746F6E273E505F
:103AD0006F72742D2D323C2F627574746F6E3E3C84
:103AE0002F74643E3C74643E3C627574746F6E2047
:103AF0006F6E636C69636B3D226C6F636174696F99
:103B00006E2E687265663D272F7362355F703327AE
:103B100022207374796C653D2277696474683A2059
:103B20003131303B206865696768743A2033307002
:103B3000783B2220747970653D27627574746F6ECE
:103B4000273E506F72742D2D333C2F627574746F45
:103B50006E3E3C2F74643E3C74643E3C62757474EB
:103B60006F6E206F6E636C69636B3D226C6F636177
:103B700074696F6E2E687265663D272F7362355FBC
:103B800070342722207374796C653D2277696474E0
:103B9000683A203131303B206865696768743A20A3
:103BA000333070783B2220747970653D27627574DC
:103BB000746F6E273E506F72742D2D343C2F6275DA
:103BC00074746F6E3E3C2F74643E3C74643E3C6281
:103BD0007574746F6E206F6E636C69636B3D226CDD
:103BE0006F636174696F6E2E687265663D272F730F
:103BF00062355F70352722207374796C653D2277BA
:103C0000696474683A203131303B206865696768BF
:103C1000743A20333070783B2220747970653D27E8
:103C2000627574746F6E273E506F72742D2D353C23
:103C30002F627574746F6E3E3C2F74643E3C7464E6
:103C40003E3C627574746F6E206F6E636C69636B5B
:103C50003D226C6F636174696F6E2E687265663D9C
:103C6000272F7362355F70362722207374796C6555
:103C70003D2277696474683A203131303B206865B1
:103C8000696768743A20333070783B222074797009
:103C9000653D27627574746F6E273E506F72742D88
:103CA0002D363C2F627574746F6E3E3C2F74643EEB
:103CB0003C74643E3C627574746F6E206F6E636C0E
:103CC00069636B3D226C6F636174696F6E2E6872FD
:103CD00065663D272F7362355F7037272220737426
:103CE000796C653D2277696474683A203131303BE4
:103CF000206865696768743A20333070783B222009
:103D0000747970653D27627574746F6E273E506FCD
:103D100072742D2D373C2F627574746F6E3E3C2F7C
:103D200074643E3C74643E3C627574746F6E206FC4
:103D30006E636C69636B3D226C6F636174696F6E57
:103D40002E687265663D272F7362355F70382722B3
:103D5000207374796C653D2277696474683A203108
:103D600031303B206865696768743A203330707879
:103D70003B2220747970653D27627574746F6E27DD
:103D80003E506F72742D2D383C2F627574746F6EB7
:103D90003E3C2F74643E3C74643E3C627574746FA8
:103DA0006E206F6E636C69636B3D226C6F63617430
:103DB000696F6E2E687265663D272F7362355F707E
:103DC000392722207374796C653D227769647468A1
:103DD0003A203131303B206865696768743A203396
:103DE0003070783B2220747970653D276275747459
:103DF0006F6E273E506F72742D2D393C2F62757493
:103E0000746F6E3E3C2F74643E3C74643E3C62753D
:103E100074746F6E206F6E636C69636B3D226C6FA0
:103E2000636174696F6E2E687265663D272F7362D9
:103E3000355F7031302722207374796C653D2277AD
:103E4000696474683A203131303B2068656967687D
:103E5000743A20333070783B2220747970653D27A6
:103E6000627574746F6E273E506F72742D31303CE2
:103E70002F627574746F6E3E3C2F74643E3C7464A4
:103E80003E3C627574746F6E206F6E636C69636B19
:103E90003D226C6F636174696F6E2E687265663D5A
:103EA000272F7362355F7031312722207374796C4C
:103EB000653D2277696474683A203131303B20686F
:103EC00065696768743A20333070783B22207479D2
:103ED00070653D27627574746F6E273E506F727403
:103EE0002D31313C2F627574746F6E3E3C2F7464BB
:103EF0003E3C74643E3C627574746F6E206F6E63FA
:103F00006C69636B3D226C6F636174696F6E2E68C0
:103F10007265663D272F7362355F7031322722202C
:103F20007374796C653D2277696474683A20313125
:103F3000303B206865696768743A20333070783B9D
:103F40002220747970653D27627574746F6E273E08
:103F5000506F72742D31323C2F627574746F6E3EE7
:103F60003C2F74643E3C74643E3C627574746F6EA6
:103F7000206F6E636C69636B3D226C6F6361746963
:103F80006F6E2E687265663D272F7362355F7031E4
:103F9000332722207374796C653D227769647468D5
:103FA0003A203131303B206865696768743A2033C4
:103FB0003070783B2220747970653D276275747487
:103FC0006F6E273E506F72742D31333C2F627574C3
:103FD000746F6E3E3C2F74643E3C74643E3C62756C
:103FE00074746F6E206F6E636C69636B3D226C6FCF
:103FF000636174696F6E2E687265663D272F736208
:10400000355F7031342722207374796C653D2277D7
:10401000696474683A203131303B206865696768AB
:10402000743A20333070783B2220747970653D27D4
:10403000627574746F6E273E506F72742D31343C0C
:104040002F627574746F6E3E3C2F74643E3C2F7407
:10405000723E00003C703E53656E736F7262617217
:1040600020363A202573203C2F703E3C703E3C6247
:104070007574746F6E206F6E636C69636B3D226C38
:104080006F636174696F6E2E687265663D272F736A
:1040900062362722207374796C653D2277696474D7
:1040A000683A203131303B206865696768743A208E
:1040B000333070783B2220747970653D27627574C7
:1040C000746F6E273E537461746973746963733CD3
:1040D0002F627574746F6E3E3C2F703E3C7461624B
:1040E0006C6520626F726465723D2231223E3C74C1
:1040F000626F64793E3C74723E3C74643E3C2F7443
:10410000643E3C74643E3C627574746F6E206F6EE6
:10411000636C69636B3D226C6F636174696F6E2EB3
:10412000687265663D272F7362365F7031272220E3
:104130007374796C653D2277696474683A20313113
:10414000303B206865696768743A20333070783B8B
:104150002220747970653D27627574746F6E273EF6
:10416000506F72742D2D313C2F627574746F6E3EDA
:104170003C2F74643E3C74643E3C627574746F6E94
:10418000206F6E636C69636B3D226C6F6361746951
:104190006F6E2E687265663D272F7362365F7032D0
:1041A0002722207374796C653D2277696474683ABC
:1041B000203131303B206865696768743A203330BC
:1041C00070783B2220747970653D27627574746F36
:1041D0006E273E506F72742D2D323C2F62757474B1
:1041E0006F6E3E3C2F74643E3C74643E3C6275745A
:1041F000746F6E206F6E636C69636B3D226C6F63CE
:104200006174696F6E2E687265663D272F73623622
:104210005F70332722207374796C653D227769645F
:1042200074683A203131303B206865696768743AB8
:1042300020333070783B2220747970653D27627599
:1042400074746F6E273E506F72742D2D333C2F6245
:104250007574746F6E3E3C2F74643E3C74643E3CD7
:10426000627574746F6E206F6E636C69636B3D2250
:104270006C6F636174696F6E2E687265663D272F7F
:104280007362365F70342722207374796C653D2227
:1042900077696474683A203131303B20686569671A
:1042A00068743A20333070783B2220747970653D11
:1042B00027627574746F6E273E506F72742D2D34A3
:1042C0003C2F627574746F6E3E3C2F74643E3C7478
:1042D000643E3C627574746F6E206F6E636C6963CC
:1042E0006B3D226C6F636174696F6E2E68726566D8
:1042F0003D272F7362365F70352722207374796CE7
:10430000653D2277696474683A203131303B20681A
:1043100065696768743A20333070783B222074797D
:1043200070653D27627574746F6E273E506F7274AE
:104330002D2D353C2F627574746F6E3E3C2F746466
:104340003E3C74643E3C627574746F6E206F6E63A5
:104350006C69636B3D226C6F636174696F6E2E686C
:104360007265663D272F7362365F70362722207391
:1043700074796C653D2277696474683A2031313014
:104380003B206865696768743A20333070783B2257
:1043900020747970653D27627574746F6E273E5086
:1043A0006F72742D2D363C2F627574746F6E3E3CA7
:1043B0002F74643E3C74643E3C627574746F6E206E
:1043C0006F6E636C69636B3D226C6F636174696FC0
:1043D0006E2E687265663D272F7362365F703727D1
:1043E00022207374796C653D2277696474683A2081
:1043F0003131303B206865696768743A203330702A
:10440000783B2220747970653D27627574746F6EF5
:10441000273E506F72742D2D373C2F627574746F68
:104420006E3E3C2F74643E3C74643E3C6275747412
:104430006F6E206F6E636C69636B3D226C6F63619E
:1044400074696F6E2E687265663D272F7362365FE2
:1044500070382722207374796C653D227769647403
:10446000683A203131303B206865696768743A20CA
:10447000333070783B2220747970653D2762757403
:10448000746F6E273E506F72742D2D383C2F6275FD
:1044900074746F6E3E3C2F74643E3C74643E3C62A8
:1044A0007574746F6E206F6E636C69636B3D226C04
:1044B0006F636174696F6E2E687265663D272F7336
:1044C00062365F70392722207374796C653D2277DC
:1044D000696474683A203131303B206865696768E7
:1044E000743A20333070783B2220747970653D2710
:1044F000627574746F6E273E506F72742D2D393C47
:104500002F627574746F6E3E3C2F74643E3C74640D
:104510003E3C627574746F6E206F6E636C69636B82
:104520003D226C6F636174696F6E2E687265663DC3
:10453000272F7362365F7031302722207374796CB5
:10454000653D2277696474683A203131303B2068D8
:1045500065696768743A20333070783B222074793B
:1045600070653D27627574746F6E273E506F72746C
:104570002D31303C2F627574746F6E3E3C2F746425
:104580003E3C74643E3C627574746F6E206F6E6363
:104590006C69636B3D226C6F636174696F6E2E682A
:1045A0007265663D272F7362365F70313127222096
:1045B0007374796C653D2277696474683A2031318F
:1045C000303B206865696768743A20333070783B07
:1045D0002220747970653D27627574746F6E273E72
:1045E000506F72742D31313C2F627574746F6E3E52
:1045F0003C2F74643E3C74643E3C627574746F6E10
:10460000206F6E636C69636B3D226C6F63617469CC
:104610006F6E2E687265663D272F7362365F70314C
:10462000322722207374796C653D2277696474683F
:104630003A203131303B206865696768743A20332D
:104640003070783B2220747970653D2762757474F0
:104650006F6E273E506F72742D31323C2F6275742D
:10466000746F6E3E3C2F74643E3C74643E3C6275D5
:1046700074746F6E206F6E636C69636B3D226C6F38
:10468000636174696F6E2E687265663D272F736271
:10469000365F7031332722207374796C653D227741
:1046A000696474683A203131303B20686569676815
:1046B000743A20333070783B2220747970653D273E
:1046C000627574746F6E273E506F72742D31333C77
:1046D0002F627574746F6E3E3C2F74643E3C74643C
:1046E0003E3C627574746F6E206F6E636C69636BB1
:1046F0003D226C6F636174696F6E2E687265663DF2
:10470000272F7362365F7031342722207374796CDF
:10471000653D2277696474683A203131303B206806
:1047200065696768743A20333070783B2220747969
:1047300070653D27627574746F6E273E506F72749A
:104740002D31343C2F627574746F6E3E3C2F74644F
:104750003E3C2F74723E00003C703E3C68333E533A
:10476000656E736F72626172202564205374617488
:104770006973746963733C2F68333E3C2F703E3C11
:104780006272202F3E3C703E53656E736F726261A1
:1047900072207369646520636D64206572726F7244
:1047A0003A2025643C2F703E3C703E53656E736F1B
:1047B000726261722073696465206372632065723E
:1047C000726F723A2025643C2F703E3C703E5365F8
:1047D0006E736F72626172207369646520646174C4
:1047E00061206F766572666C6F773A2025643C2F86
:1047F000703E3C703E53656E736F726261722073DF
:1048000069646520627974652074696D656F75747B
:104810003A2025643C2F703E3C703E53656E736FAA
:104820007262617220736964652061636B207469D0
:104830006D656F75743A2025643C2F703E3C703E68
:1048400053656E736F726261722073656E64206D62
:10485000657373616765733A2025643C2F703E3C35
:104860006272202F3E3C703E504355207369646550
:1048700020636D64206572726F723A2025643C2F4C
:10488000703E3C703E5043552073696465206372EE
:1048900063206572726F723A2025643C2F703E3C33
:1048A000703E5043552073696465206461746120D3
:1048B0006F766572666C6F773A2025643C2F703E88
:1048C0003C703E504355207369646520627974657D
:1048D0002074696D656F75743A2025643C2F703EB5
:1048E0003C703E50435520736964652061636B20C2
:1048F00074696D656F75743A2025643C2F703E3C79
:10490000703E5043552073656E64206D657373610E
:104910006765733A2025643C2F703E3C6272202FFD
:104920003E3C703E4E756D626572206F66207375F9
:10493000636365737366756C6C207472616E736DFE
:10494000697373696F6E73206265747765656E2035
:1049500050435520262073656E736F72626172201A
:1049600073696E6365205043552073746172743AA5
:104970002025643C2F703E3C703E4E756D62657222
:10498000206F66206661696C6564207472616E7365
:104990006D697373696F6E73206265747765656E98
:1049A0002050435520262073656E736F72626172CA
:1049B0002073696E6365205043552073746172746F
:1049C0003A2025643C2F703E3C703E4E756D62650A
:1049D00072206F6620636F6E6E656374696F6E73AD
:1049E000206F6E2063757272656E742073656E73CE
:1049F0006F72626172206C696E6B2F696E74657282
:104A0000666163652073696E63652050435520734A
:104A1000746172743A2025643C2F703E3C627220AF
:104A20002F3E000078B587B00820029006220121B1
:104A3000022002F04DFE044614F1010F07D1502070
:104A400080F31188BFF34F8FBFF36F8FFEE7042110
:104A5000009100220FF264030FF2710518A60021E5
:104A600002F0ECFF5021ADF80E104FF4A042ADF86B
:104A70000E2003A90822204602F0BFFE0321204693
:104A800003F0C1FA0AE000210122019100920346DD
:104A90004FF400623146284603F0FAFB02AA05A94A
:104AA000204603F0F1F810F1010FECD1502080F313
:104AB0001188BFF34F8FBFF36F8FFEE7FFFFFFFF3C
:104AC0006874747020736572766572002DE9F04F1A
:104AD000834640F2B45985B0484604F031F90746A0
:104AE00043F69828404604F02BF90446002F18BFDF
:104AF000002C00F0E0810420009000220FF2C0336F
:104B00000021584602F09AFF0420009001220FF283
:104B1000B4330021584602F091FF791D3A1D0491EB
:104B2000039241F2883ADFF8A45724E05A464146FE
:104B3000204602F0FFF80221584603F0ADFA03F0D8
:104B40006AFD064600234A463946584603F022F9D4
:104B5000002804D403F05FFD801B5045F2D3384693
:104B600004F07DF9204604F07AF9584602F002FF7D
:104B7000002003F04CFC00234A463946584603F017
:104B800009F905F0C0FA0028D0D004220FF238311C
:104B9000384605F04DFB002840F0DB80A0222021A4
:104BA000381D05F059FB039E861B3246391D2846E9
:104BB00005F07EFB0020A855A022C0A1284605F0E4
:104BC00037FB10B905F007FCBEE0A0220FF2003160
:104BD000284605F02DFB10B905F0FFFBB4E0A0223C
:104BE0000FF2F421284605F023FB08B900232BE03F
:104BF000A0220FF2EC21284605F01AFB08B9012388
:104C000022E0A0220FF2E021284605F011FB08B9AE
:104C1000022319E0A0220FF2D821284605F008FB54
:104C200008B9032310E0A0220FF2CC21284605F09A
:104C3000FFFA08B9042307E0A0220FF2C421284696
:104C400005F0F6FA30B905235A464146204601F0F0
:104C5000BBFF7EE0A0220FF2B021284605F0E8FA63
:104C600028B95A464146204600F032FB71E0A022A6
:104C70000FF2A821284605F0DBFA00285ED0A0221A
:104C80000FF2A821284605F0D3FA28B95A46414622
:104C9000204602F071F85CE0A0220FF2AC21284619
:104CA00005F0C6FA60B95A464146204602F008FAB5
:104CB00001284ED05A464146204602F03BF848E0D3
:104CC0000E220FF29821284605F0B2FA38B905F104
:104CD0000F035A464146204602F0CEF814E0152252
:104CE0000FF28821284605F0A3FA0028E2D00E2210
:104CF0000FF29021284605F09BFA40B95A4647F238
:104D00003051204602F0B9FB0128D3D121E007221F
:104D10000FF28021284605F06BFB20B9284605F0EC
:104D200053FD58B9C6E708229CA1284605F060FB50
:104D300050B9284605F0C6FD0028BBD05A4641466A
:104D4000204601F0DCFF04E05A464146204600F0D0
:104D500069F9052294A1384605F06AFA002840F066
:104D60008A80A0222021781D05F076FA049E861BF9
:104D70003246791D284605F09BFA0020A855A0224E
:104D80008BA1284605F054FA48B900218DF8081087
:104D90006E4623218DF8001096E80E0019E0A0223F
:104DA00088A1284605F044FA20B900218DF80810A2
:104DB00021220AE05FF0A00288A1284605F038FA17
:104DC00040BB00218DF8081043228DF80020694671
:104DD0000EC904F0D0FE684690E80E00012004F0F1
:104DE000CAFE684690E80E00022004F0C4FE684641
:104DF00090E80E00032004F0BEFE684690E80E0026
:104E0000042004F0B8FE684690E80E00052004F087
:104E1000B2FE2BE05FF00F0275A1284605F0E8FA1C
:104E200050B905F10F0004F00DFFF8B95A4641469C
:104E3000204601F07FFF1EE05FF00E0270A12846C1
:104E400005F0D6FA28B905F10E0004F075FF68B92F
:104E5000ECE713226EA1284605F0CAFA0028E5D136
:104E600005F1130004F0E1FF0028DFD05A46414667
:104E7000204601F044FF0221584603F00DF903F0EB
:104E8000CAFB064600234A463946584602F082FFCE
:104E9000002804D403F0BFFB801B5045F2D33846F2
:104EA00003F0DDFF204603F0DAFF584602F062FD12
:104EB00005F034F95CE605B0BDE8F08F2F6F6E00A9
:104EC00088130000881300004745542000000000AC
:104ED0002F6F6666000000002F7362310000000033
:104EE0002F736232000000002F7362330000000055
:104EF0002F736234000000002F7362350000000041
:104F00002F736236000000002F736266665F736263
:104F10005F6F766572766965770000002F6661764F
:104F200069636F6E2E69636F000000002F67657400
:104F30005F70616E656C636F6E74726F6C6C6572BE
:104F40005F646174610000002F6765745F706F7249
:104F5000745F646174615F616C6C00002F676574DD
:104F60005F706F72745F6461746100002F676574B5
:104F70005F73656E736F726261725F737461747573
:104F8000730000002F6765745F73746174697374D4
:104F9000696300002F7365745F6970002F73657417
:104FA0005F6D616300000000504F5354200000000B
:104FB0002F736266665F4D4F44455F4449534142DB
:104FC0004C4544002F736266665F4D4F44455F4118
:104FD00055544F5F52454144000000002F736266F4
:104FE000665F7273745F6D5F6379636C65730000F5
:104FF0002F7365745F706F72745F6C6564732F00DC
:105000002F7365745F706F72745F6C65642F00003E
:105010002F7365745F636F6E66696775726174691B
:105020006F6E2F002DE9F84F0446DFF8F879DFF8AE
:10503000F8B90020884692467880BEB05A460021D2
:1050400006F0D8FB78805A467988204606F0D2FBD5
:105050007A88424504D200232146504602F02FFFB1
:1050600005F073FCF86106F0C8FC87ED080A06F04D
:10507000C8FC87ED090A03F01EFF054603F0CBFAD2
:10508000DFF8A8E99EF802109EF803202A918146D5
:105090009EF801002B902992DFF8940941788278DC
:1050A000C3783D913C923B93DFF888194A788B781E
:1050B0003A923993CE78DFF880293896537837932F
:1050C00096783696D3783593DFF870395E783496D3
:1050D0009E783396DE7832961E7931965E793096D8
:1050E0009EF800E0FE69CDF8A0E000782F900978E6
:1050F000309812782E9127902D9241F284221978BF
:1051000032982C912590934431993498289A26917D
:105110002390129233993598249121902C993798A5
:1051200022911F903699389820911D902D993A9888
:105130001E911B9039993B981C9119902E993D987E
:105140001A9117903C992998189115902F992B989E
:10515000169113902A99786A149106F06DFCCDE9A6
:105160001001386A06F068FCCDE90E01DFF8D0388E
:105170000D95A9FB0332520A0C9270790B9031798C
:105180000A91F0780990B178089170780790327898
:1051900029992A9805910490069207F174022B9997
:1051A00028980391029007F154010192009107F1B0
:1051B0005C035A460021002006F01CFB788003F0B7
:1051C0007AFE054603F027FA8146FE693098319948
:1051D00027902691329833992590249134982C99D0
:1051E00023902291359836992190209137982D99C6
:1051F0001F901E91389839991D901C913A982E99BC
:105200001B901A913B983C99199018913D982F99B1
:105210001790169129982A99159014912B982899EE
:1052200013901291786A06F007FCCDE91001386AF4
:1052300006F002FCCDE90E010D9507F15C03DFF8E5
:105240000018A9FB0110400A0C9072790B9230797A
:105250000A90F1780991B0780890299871780791AF
:105260002A99327805900491069207F174022B98DE
:1052700028990390029107F15400019200905A4638
:105280007988204606F0B6FA7A88424504D200238F
:105290002146504602F013FEDFF8A8572A460021A7
:1052A000002006F0A7FA78802A467988204606F082
:1052B000A1FA7A88424506D2214650463FB0BDE861
:1052C000F04F01F056BD3FB0BDE8F08F807F022067
:1052D0002DE9F0478046DFF87077DFF84C47002073
:1052E00089469246388078802246002106F082FA6C
:1052F000388022463988404606F07CFA3A884A458A
:1053000004D200234146504602F0D9FD002004F0AB
:105310000DFC391D00F068FB41F6583025183B1D87
:105320002A460021002006F065FA38803B1D3988A6
:105330002A46404606F05EFA3A884A4504D20023DF
:105340004146504602F0BBFD0023002241460020AA
:1053500000F096FB4845388005D2024600234146BE
:10536000504602F0ACFD002301224146002000F02F
:1053700087FB4845388005D2024600234146504607
:1053800002F09DFD002302224146002000F078FB40
:105390004845388005D2024600234146504602F077
:1053A0008EFD012300224146002000F069FB4845A4
:1053B000388005D2024600234146504602F07FFD68
:1053C000012301224146002000F05AFB4845388065
:1053D00005D2024600234146504602F070FD0123EB
:1053E00002224146002000F04BFB4845388005D2A0
:1053F000024600234146504602F061FD0FF2C855B7
:105400002A460021002006F0F5F938802A4639881E
:10541000404606F0EFF93A884A4504D20023414657
:10542000504602F04CFD012004F080FB391D00F0D5
:10543000DBFA04F50A563B1D32460021002006F037
:10544000D9F938803B1D39883246404606F0D2F9FA
:105450005FEA090005D03A8800234146504602F031
:105460002EFD002300224146012000F009FB4845A3
:10547000388005D2024600234146504602F01FFD07
:10548000002301224146012000F0FAFA4845388005
:1054900005D2024600234146504602F010FD00238B
:1054A00002224146012000F0EBFA4845388005D23F
:1054B000024600234146504602F001FD012300222E
:1054C0004146012000F0DCFA4845388005D202460A
:1054D00000234146504602F0F2FC012301224146DE
:1054E000012000F0CDFA4845388005D2024600235D
:1054F0004146504602F0E3FC0123022241460120CE
:1055000000F0BEFA4845388005D2024600234146E5
:10551000504602F0D4FC2A460021002006F06AF929
:1055200038802A463988404606F064F93A884A4568
:1055300004D200234146504602F0C1FC022004F090
:10554000F5FA391D00F050FA42F6841026183B1D7A
:1055500032460021002006F04DF938803B1D398885
:105560003246404606F046F93A884A4504D20023BE
:105570004146504602F0A3FC002038800023002260
:105580004146022000F07CFA4845388005D20246A8
:1055900000234146504602F092FC0023012241467E
:1055A000022000F06DFA4845388005D202460023FB
:1055B0004146504602F083FC00230222414602206D
:1055C00000F05EFA4845388005D202460023414685
:1055D000504602F074FC012300224146022000F0F4
:1055E0004FFA4845388005D20246002341465046CE
:1055F00002F065FC012301224146022000F040FA3E
:105600004845388005D2024600234146504602F004
:1056100056FC012302224146022000F031FA48459F
:10562000388005D2024600234146504602F047FC2E
:105630002A460021002006F0DDF838802A46398805
:10564000404606F0D7F83A884A4504D2002341463E
:10565000504602F034FC032004F068FA391D00F0D3
:10566000C3F943F2880026183B1D32460021002072
:1056700006F0C0F838803B1D39883246404606F0B7
:10568000B9F83A884A4504D200234146504602F010
:1056900016FC002300224146032000F0F1F94845A2
:1056A000388005D2024600234146504602F007FCEE
:1056B000002301224146032000F0E2F948453880EA
:1056C00005D2024600234146504602F0F8FB002373
:1056D00002224146032000F0D3F94845388005D224
:1056E000024600234146504602F0E9FB0123002216
:1056F0004146032000F0C4F94845388005D20246EF
:1057000000234146504602F0DAFB012301224146C4
:10571000032000F0B5F94845388005D20246002341
:105720004146504602F0CBFB0123022241460320B2
:1057300000F0A6F94845388005D2024600234146CC
:10574000504602F0BCFB2A460021002006F052F829
:1057500038802A463988404606F04CF83A884A454F
:1057600004D200234146504602F0A9FB042004F075
:10577000DDF9391D00F038F943F28C7026183B1D15
:1057800032460021002006F035F838803B1D39886C
:105790003246404606F02EF83A884A4504D20023A5
:1057A0004146504602F08BFB002300224146042074
:1057B00000F066F94845388005D20246002341468C
:1057C000504602F07CFB002301224146042000F0F9
:1057D00057F94845388005D20246002341465046D5
:1057E00002F06DFB002302224146042000F048F93C
:1057F0004845388005D2024600234146504602F013
:105800005EFB012300224146042000F039F948459F
:10581000388005D2024600234146504602F04FFB35
:10582000012301224146042000F02AF9484538802E
:1058300005D2024600234146504602F040FB0123B8
:1058400002224146042000F01BF94845388005D269
:10585000024600234146504602F031FB2A46002111
:10586000002005F0C7FF38802A463988404605F0F9
:10587000C1FF3A884A4504D200234146504602F00F
:105880001EFB052004F052F9391D00F0ADF843F677
:10589000906024183B1D22460021002005F0AAFF3D
:1058A00038803B1D39882246404605F0A3FF3A88E0
:1058B0004A4504D200234146504602F000FB002333
:1058C00000224146052000F0DBF84845388005D22B
:1058D000024600234146504602F0F1FA002301221D
:1058E0004146052000F0CCF84845388005D20246F4
:1058F00000234146504602F0E2FA002302224146CC
:10590000052000F0BDF84845388005D20246002346
:105910004146504602F0D3FA0123002241460520B9
:1059200000F0AEF84845388005D2024600234146D3
:10593000504602F0C4FA012301224146052000F03E
:105940009FF84845388005D202460023414650461C
:1059500002F0B5FA012302224146052000F090F83A
:105960004845388005D2024600234146504602F0A1
:10597000A6FA2A460021002005F03CFF38802A467E
:105980003988404605F036FF3A884A4504D200235C
:105990004146504602F093FA2A4C2246002100204C
:1059A00005F028FF388022463988404605F022FF5E
:1059B0003A884A4505D241465046BDE8F04701F0D5
:1059C000D8B9BDE8F08700003C2F74626F64793E5F
:1059D0003C2F7461626C653E3C6272202F3E3C62DB
:1059E00072202F3E0000000038B504460D462621E7
:1059F000284606F045F81CB1022C09D004D30AE071
:105A00005FF00D0212A108E05FF0060214A104E0AD
:105A100024220E4901E0142213A12846BDE8384093
:105A200006F032B8B40C0020C401000800000608DB
:105A30000800060810000608180006080000040800
:105A4000986E12836C760008188502207861010830
:105A50004E6F7420636F6E6E656374656400000042
:105A60004F6E6C696E650000556E6B6F776E2050DF
:105A7000435520506F727420436F6465000000002E
:105A80002DE9F04FADF5806DA7B00F46144698464E
:105A900003F09AFFDFF8885A22462C21286211FB76
:105AA00002F200EB020ACDF894240AF10B064FF043
:105AB0001C0908223146DFF86C0A04F099FC002822
:105AC00014BF0020F1208436B9F1010905F8010B5B
:105AD000EFD1B8F1000FDFF8481ADFF8443ACDF8FB
